{
  "_format": "hh-sol-artifact-1",
  "contractName": "NftCollection",
  "sourceName": "contracts/NftCollection.sol",
  "abi": [
    {
      "inputs": [
        {
          "internalType": "string",
          "name": "name_",
          "type": "string"
        },
        {
          "internalType": "string",
          "name": "symbol_",
          "type": "string"
        },
        {
          "internalType": "uint256",
          "name": "maxSupply_",
          "type": "uint256"
        },
        {
          "internalType": "string",
          "name": "baseURI_",
          "type": "string"
        }
      ],
      "stateMutability": "nonpayable",
      "type": "constructor"
    },
    {
      "inputs": [],
      "name": "MaxSupplyReached",
      "type": "error"
    },
    {
      "inputs": [],
      "name": "NotTokenOwnerOrApproved",
      "type": "error"
    },
    {
      "inputs": [
        {
          "internalType": "uint256",
          "name": "tokenId",
          "type": "uint256"
        }
      ],
      "name": "TokenAlreadyMinted",
      "type": "error"
    },
    {
      "inputs": [
        {
          "internalType": "uint256",
          "name": "tokenId",
          "type": "uint256"
        }
      ],
      "name": "TokenDoesNotExist",
      "type": "error"
    },
    {
      "inputs": [],
      "name": "ZeroAddress",
      "type": "error"
    },
    {
      "anonymous": false,
      "inputs": [
        {
          "indexed": true,
          "internalType": "address",
          "name": "owner",
          "type": "address"
        },
        {
          "indexed": true,
          "internalType": "address",
          "name": "approved",
          "type": "address"
        },
        {
          "indexed": true,
          "internalType": "uint256",
          "name": "tokenId",
          "type": "uint256"
        }
      ],
      "name": "Approval",
      "type": "event"
    },
    {
      "anonymous": false,
      "inputs": [
        {
          "indexed": true,
          "internalType": "address",
          "name": "owner",
          "type": "address"
        },
        {
          "indexed": true,
          "internalType": "address",
          "name": "operator",
          "type": "address"
        },
        {
          "indexed": false,
          "internalType": "bool",
          "name": "approved",
          "type": "bool"
        }
      ],
      "name": "ApprovalForAll",
      "type": "event"
    },
    {
      "anonymous": false,
      "inputs": [
        {
          "indexed": false,
          "internalType": "string",
          "name": "newBaseURI",
          "type": "string"
        }
      ],
      "name": "BaseURIUpdated",
      "type": "event"
    },
    {
      "anonymous": false,
      "inputs": [
        {
          "indexed": true,
          "internalType": "address",
          "name": "previousOwner",
          "type": "address"
        },
        {
          "indexed": true,
          "internalType": "address",
          "name": "newOwner",
          "type": "address"
        }
      ],
      "name": "OwnershipTransferred",
      "type": "event"
    },
    {
      "anonymous": false,
      "inputs": [
        {
          "indexed": false,
          "internalType": "address",
          "name": "account",
          "type": "address"
        }
      ],
      "name": "Paused",
      "type": "event"
    },
    {
      "anonymous": false,
      "inputs": [
        {
          "indexed": true,
          "internalType": "address",
          "name": "from",
          "type": "address"
        },
        {
          "indexed": true,
          "internalType": "address",
          "name": "to",
          "type": "address"
        },
        {
          "indexed": true,
          "internalType": "uint256",
          "name": "tokenId",
          "type": "uint256"
        }
      ],
      "name": "Transfer",
      "type": "event"
    },
    {
      "anonymous": false,
      "inputs": [
        {
          "indexed": false,
          "internalType": "address",
          "name": "account",
          "type": "address"
        }
      ],
      "name": "Unpaused",
      "type": "event"
    },
    {
      "inputs": [
        {
          "internalType": "address",
          "name": "to",
          "type": "address"
        },
        {
          "internalType": "uint256",
          "name": "tokenId",
          "type": "uint256"
        }
      ],
      "name": "approve",
      "outputs": [],
      "stateMutability": "nonpayable",
      "type": "function"
    },
    {
      "inputs": [
        {
          "internalType": "address",
          "name": "owner",
          "type": "address"
        }
      ],
      "name": "balanceOf",
      "outputs": [
        {
          "internalType": "uint256",
          "name": "",
          "type": "uint256"
        }
      ],
      "stateMutability": "view",
      "type": "function"
    },
    {
      "inputs": [
        {
          "internalType": "address",
          "name": "to",
          "type": "address"
        },
        {
          "internalType": "uint256[]",
          "name": "tokenIds",
          "type": "uint256[]"
        }
      ],
      "name": "batchMint",
      "outputs": [],
      "stateMutability": "nonpayable",
      "type": "function"
    },
    {
      "inputs": [
        {
          "internalType": "uint256",
          "name": "tokenId",
          "type": "uint256"
        }
      ],
      "name": "burn",
      "outputs": [],
      "stateMutability": "nonpayable",
      "type": "function"
    },
    {
      "inputs": [
        {
          "internalType": "uint256",
          "name": "tokenId",
          "type": "uint256"
        }
      ],
      "name": "getApproved",
      "outputs": [
        {
          "internalType": "address",
          "name": "",
          "type": "address"
        }
      ],
      "stateMutability": "view",
      "type": "function"
    },
    {
      "inputs": [
        {
          "internalType": "address",
          "name": "owner",
          "type": "address"
        },
        {
          "internalType": "address",
          "name": "operator",
          "type": "address"
        }
      ],
      "name": "isApprovedForAll",
      "outputs": [
        {
          "internalType": "bool",
          "name": "",
          "type": "bool"
        }
      ],
      "stateMutability": "view",
      "type": "function"
    },
    {
      "inputs": [
        {
          "internalType": "uint256",
          "name": "tokenId",
          "type": "uint256"
        }
      ],
      "name": "isMinted",
      "outputs": [
        {
          "internalType": "bool",
          "name": "",
          "type": "bool"
        }
      ],
      "stateMutability": "view",
      "type": "function"
    },
    {
      "inputs": [],
      "name": "maxSupply",
      "outputs": [
        {
          "internalType": "uint256",
          "name": "",
          "type": "uint256"
        }
      ],
      "stateMutability": "view",
      "type": "function"
    },
    {
      "inputs": [],
      "name": "name",
      "outputs": [
        {
          "internalType": "string",
          "name": "",
          "type": "string"
        }
      ],
      "stateMutability": "view",
      "type": "function"
    },
    {
      "inputs": [],
      "name": "owner",
      "outputs": [
        {
          "internalType": "address",
          "name": "",
          "type": "address"
        }
      ],
      "stateMutability": "view",
      "type": "function"
    },
    {
      "inputs": [
        {
          "internalType": "uint256",
          "name": "tokenId",
          "type": "uint256"
        }
      ],
      "name": "ownerOf",
      "outputs": [
        {
          "internalType": "address",
          "name": "",
          "type": "address"
        }
      ],
      "stateMutability": "view",
      "type": "function"
    },
    {
      "inputs": [],
      "name": "pause",
      "outputs": [],
      "stateMutability": "nonpayable",
      "type": "function"
    },
    {
      "inputs": [],
      "name": "paused",
      "outputs": [
        {
          "internalType": "bool",
          "name": "",
          "type": "bool"
        }
      ],
      "stateMutability": "view",
      "type": "function"
    },
    {
      "inputs": [],
      "name": "renounceOwnership",
      "outputs": [],
      "stateMutability": "nonpayable",
      "type": "function"
    },
    {
      "inputs": [
        {
          "internalType": "address",
          "name": "to",
          "type": "address"
        },
        {
          "internalType": "uint256",
          "name": "tokenId",
          "type": "uint256"
        }
      ],
      "name": "safeMint",
      "outputs": [],
      "stateMutability": "nonpayable",
      "type": "function"
    },
    {
      "inputs": [
        {
          "internalType": "address",
          "name": "from",
          "type": "address"
        },
        {
          "internalType": "address",
          "name": "to",
          "type": "address"
        },
        {
          "internalType": "uint256",
          "name": "tokenId",
          "type": "uint256"
        }
      ],
      "name": "safeTransferFrom",
      "outputs": [],
      "stateMutability": "nonpayable",
      "type": "function"
    },
    {
      "inputs": [
        {
          "internalType": "address",
          "name": "from",
          "type": "address"
        },
        {
          "internalType": "address",
          "name": "to",
          "type": "address"
        },
        {
          "internalType": "uint256",
          "name": "tokenId",
          "type": "uint256"
        },
        {
          "internalType": "bytes",
          "name": "data",
          "type": "bytes"
        }
      ],
      "name": "safeTransferFrom",
      "outputs": [],
      "stateMutability": "nonpayable",
      "type": "function"
    },
    {
      "inputs": [
        {
          "internalType": "address",
          "name": "operator",
          "type": "address"
        },
        {
          "internalType": "bool",
          "name": "approved",
          "type": "bool"
        }
      ],
      "name": "setApprovalForAll",
      "outputs": [],
      "stateMutability": "nonpayable",
      "type": "function"
    },
    {
      "inputs": [
        {
          "internalType": "string",
          "name": "newBase",
          "type": "string"
        }
      ],
      "name": "setBaseURI",
      "outputs": [],
      "stateMutability": "nonpayable",
      "type": "function"
    },
    {
      "inputs": [
        {
          "internalType": "bytes4",
          "name": "interfaceId",
          "type": "bytes4"
        }
      ],
      "name": "supportsInterface",
      "outputs": [
        {
          "internalType": "bool",
          "name": "",
          "type": "bool"
        }
      ],
      "stateMutability": "view",
      "type": "function"
    },
    {
      "inputs": [],
      "name": "symbol",
      "outputs": [
        {
          "internalType": "string",
          "name": "",
          "type": "string"
        }
      ],
      "stateMutability": "view",
      "type": "function"
    },
    {
      "inputs": [
        {
          "internalType": "uint256",
          "name": "tokenId",
          "type": "uint256"
        }
      ],
      "name": "tokenURI",
      "outputs": [
        {
          "internalType": "string",
          "name": "",
          "type": "string"
        }
      ],
      "stateMutability": "view",
      "type": "function"
    },
    {
      "inputs": [],
      "name": "totalSupply",
      "outputs": [
        {
          "internalType": "uint256",
          "name": "",
          "type": "uint256"
        }
      ],
      "stateMutability": "view",
      "type": "function"
    },
    {
      "inputs": [
        {
          "internalType": "address",
          "name": "from",
          "type": "address"
        },
        {
          "internalType": "address",
          "name": "to",
          "type": "address"
        },
        {
          "internalType": "uint256",
          "name": "tokenId",
          "type": "uint256"
        }
      ],
      "name": "transferFrom",
      "outputs": [],
      "stateMutability": "nonpayable",
      "type": "function"
    },
    {
      "inputs": [
        {
          "internalType": "address",
          "name": "newOwner",
          "type": "address"
        }
      ],
      "name": "transferOwnership",
      "outputs": [],
      "stateMutability": "nonpayable",
      "type": "function"
    },
    {
      "inputs": [],
      "name": "unpause",
      "outputs": [],
      "stateMutability": "nonpayable",
      "type": "function"
    }
  ],
  "bytecode": "0x60a06040523480156200001157600080fd5b506040516200221838038062002218833981016040819052620000349162000208565b8383600062000044838262000332565b50600162000053828262000332565b505050620000706200006a620000ed60201b60201c565b620000f1565b6006805460ff60a01b1916905581620000cf5760405162461bcd60e51b815260206004820152601560248201527f6d6178537570706c79206d757374206265203e20300000000000000000000000604482015260640160405180910390fd5b60808290526008620000e2828262000332565b5050505050620003fe565b3390565b600680546001600160a01b038381166001600160a01b0319831681179093556040519116919082907f8be0079c531659141344cd1fd0a4f28419497f9722a3daafe3b4186f6b6457e090600090a35050565b634e487b7160e01b600052604160045260246000fd5b600082601f8301126200016b57600080fd5b81516001600160401b038082111562000188576200018862000143565b604051601f8301601f19908116603f01168101908282118183101715620001b357620001b362000143565b81604052838152602092508683858801011115620001d057600080fd5b600091505b83821015620001f45785820183015181830184015290820190620001d5565b600093810190920192909252949350505050565b600080600080608085870312156200021f57600080fd5b84516001600160401b03808211156200023757600080fd5b620002458883890162000159565b955060208701519150808211156200025c57600080fd5b6200026a8883890162000159565b94506040870151935060608701519150808211156200028857600080fd5b50620002978782880162000159565b91505092959194509250565b600181811c90821680620002b857607f821691505b602082108103620002d957634e487b7160e01b600052602260045260246000fd5b50919050565b601f8211156200032d57600081815260208120601f850160051c81016020861015620003085750805b601f850160051c820191505b81811015620003295782815560010162000314565b5050505b505050565b81516001600160401b038111156200034e576200034e62000143565b62000366816200035f8454620002a3565b84620002df565b602080601f8311600181146200039e5760008415620003855750858301515b600019600386901b1c1916600185901b17855562000329565b600085815260208120601f198616915b82811015620003cf57888601518255948401946001909101908401620003ae565b5085821015620003ee5787850151600019600388901b60f8161c191681555b5050505050600190811b01905550565b608051611df062000428600039600081816103620152818161071801526109ee0152611df06000f3fe608060405234801561001057600080fd5b506004361061018e5760003560e01c80636352211e116100de578063a144819411610097578063c87b56dd11610071578063c87b56dd1461034a578063d5abeb011461035d578063e985e9c514610384578063f2fde38b1461039757600080fd5b8063a144819414610311578063a22cb46514610324578063b88d4fde1461033757600080fd5b80636352211e146102c257806370a08231146102d5578063715018a6146102e85780638456cb59146102f05780638da5cb5b146102f857806395d89b411461030957600080fd5b806333c41a901161014b57806342966c681161012557806342966c68146102775780634684d7e91461028a57806355f804b31461029d5780635c975abb146102b057600080fd5b806333c41a90146102395780633f4ba83a1461025c57806342842e0e1461026457600080fd5b806301ffc9a71461019357806306fdde03146101bb578063081812fc146101d0578063095ea7b3146101fb57806318160ddd1461021057806323b872dd14610226575b600080fd5b6101a66101a13660046116f6565b6103aa565b60405190151581526020015b60405180910390f35b6101c36103fc565b6040516101b29190611763565b6101e36101de366004611776565b61048e565b6040516001600160a01b0390911681526020016101b2565b61020e6102093660046117ab565b6104b5565b005b6102186105cf565b6040519081526020016101b2565b61020e6102343660046117d5565b6105df565b6101a6610247366004611776565b60009081526009602052604090205460ff1690565b61020e610610565b61020e6102723660046117d5565b610622565b61020e610285366004611776565b61063d565b61020e610298366004611811565b6106d1565b61020e6102ab366004611897565b61080b565b600654600160a01b900460ff166101a6565b6101e36102d0366004611776565b61085e565b6102186102e3366004611909565b6108be565b61020e610944565b61020e610956565b6006546001600160a01b03166101e3565b6101c3610966565b61020e61031f3660046117ab565b610975565b61020e610332366004611924565b610a68565b61020e610345366004611976565b610a77565b6101c3610358366004611776565b610aaf565b6102187f000000000000000000000000000000000000000000000000000000000000000081565b6101a6610392366004611a52565b610af3565b61020e6103a5366004611909565b610b21565b60006001600160e01b031982166380ac58cd60e01b14806103db57506001600160e01b03198216635b5e139f60e01b145b806103f657506301ffc9a760e01b6001600160e01b03198316145b92915050565b60606000805461040b90611a85565b80601f016020809104026020016040519081016040528092919081815260200182805461043790611a85565b80156104845780601f1061045957610100808354040283529160200191610484565b820191906000526020600020905b81548152906001019060200180831161046757829003601f168201915b5050505050905090565b600061049982610b9a565b506000908152600460205260409020546001600160a01b031690565b60006104c08261085e565b9050806001600160a01b0316836001600160a01b0316036105325760405162461bcd60e51b815260206004820152602160248201527f4552433732313a20617070726f76616c20746f2063757272656e74206f776e656044820152603960f91b60648201526084015b60405180910390fd5b336001600160a01b038216148061054e575061054e8133610af3565b6105c05760405162461bcd60e51b815260206004820152603d60248201527f4552433732313a20617070726f76652063616c6c6572206973206e6f7420746f60448201527f6b656e206f776e6572206f7220617070726f76656420666f7220616c6c0000006064820152608401610529565b6105ca8383610bf9565b505050565b60006105da60075490565b905090565b6105e93382610c67565b6106055760405162461bcd60e51b815260040161052990611abf565b6105ca838383610cc6565b610618610e37565b610620610e91565b565b6105ca83838360405180602001604052806000815250610a77565b60006106488261085e565b9050336001600160a01b0382161480159061066a57506106688133610af3565b155b801561068757503361067b8361048e565b6001600160a01b031614155b156106a557604051634cd9539b60e11b815260040160405180910390fd5b6106ae82610ee6565b6106b86007610f89565b506000908152600960205260409020805460ff19169055565b6106d9610e37565b6106e1610fe0565b6001600160a01b0383166107085760405163d92e233d60e01b815260040160405180910390fd5b80600061071460075490565b90507f00000000000000000000000000000000000000000000000000000000000000006107418383611b22565b11156107605760405163d05cb60960e01b815260040160405180910390fd5b60005b8381101561080357600085858381811061077f5761077f611b35565b60209081029290920135600081815260099093526040909220549192505060ff16156107c1576040516322d1d39560e21b815260048101829052602401610529565b6000818152600960205260409020805460ff191660011790556107e4878261102d565b6107f2600780546001019055565b506107fc81611b4b565b9050610763565b505050505050565b610813610e37565b6008610820828483611baa565b507f6741b2fc379fad678116fe3d4d4b9a1a184ab53ba36b86ad0fa66340b1ab41ad8282604051610852929190611c6b565b60405180910390a15050565b6000818152600260205260408120546001600160a01b0316806103f65760405162461bcd60e51b8152602060048201526018602482015277115490cdcc8c4e881a5b9d985b1a59081d1bdad95b88125160421b6044820152606401610529565b60006001600160a01b0382166109285760405162461bcd60e51b815260206004820152602960248201527f4552433732313a2061646472657373207a65726f206973206e6f7420612076616044820152683634b21037bbb732b960b91b6064820152608401610529565b506001600160a01b031660009081526003602052604090205490565b61094c610e37565b6106206000611047565b61095e610e37565b610620611099565b60606001805461040b90611a85565b61097d610e37565b610985610fe0565b6001600160a01b0382166109ac5760405163d92e233d60e01b815260040160405180910390fd5b60008181526009602052604090205460ff16156109df576040516322d1d39560e21b815260048101829052602401610529565b60006109ea60075490565b90507f0000000000000000000000000000000000000000000000000000000000000000610a18826001611b22565b1115610a375760405163d05cb60960e01b815260040160405180910390fd5b6000828152600960205260409020805460ff19166001179055610a5e600780546001019055565b6105ca838361102d565b610a733383836110dc565b5050565b610a813383610c67565b610a9d5760405162461bcd60e51b815260040161052990611abf565b610aa9848484846111aa565b50505050565b6000818152600260205260409020546060906001600160a01b0316610aea5760405163c927e5bf60e01b815260048101839052602401610529565b6103f6826111dd565b6001600160a01b03918216600090815260056020908152604080832093909416825291909152205460ff1690565b610b29610e37565b6001600160a01b038116610b8e5760405162461bcd60e51b815260206004820152602660248201527f4f776e61626c653a206e6577206f776e657220697320746865207a65726f206160448201526564647265737360d01b6064820152608401610529565b610b9781611047565b50565b6000818152600260205260409020546001600160a01b0316610b975760405162461bcd60e51b8152602060048201526018602482015277115490cdcc8c4e881a5b9d985b1a59081d1bdad95b88125160421b6044820152606401610529565b600081815260046020526040902080546001600160a01b0319166001600160a01b0384169081179091558190610c2e8261085e565b6001600160a01b03167f8c5be1e5ebec7d5bd14f71427d1e84f3dd0314c0f7b2291e5b200ac8c7c3b92560405160405180910390a45050565b600080610c738361085e565b9050806001600160a01b0316846001600160a01b03161480610c9a5750610c9a8185610af3565b80610cbe5750836001600160a01b0316610cb38461048e565b6001600160a01b0316145b949350505050565b826001600160a01b0316610cd98261085e565b6001600160a01b031614610cff5760405162461bcd60e51b815260040161052990611c9a565b6001600160a01b038216610d615760405162461bcd60e51b8152602060048201526024808201527f4552433732313a207472616e7366657220746f20746865207a65726f206164646044820152637265737360e01b6064820152608401610529565b610d6e8383836001611244565b826001600160a01b0316610d818261085e565b6001600160a01b031614610da75760405162461bcd60e51b815260040161052990611c9a565b600081815260046020908152604080832080546001600160a01b03199081169091556001600160a01b0387811680865260038552838620805460001901905590871680865283862080546001019055868652600290945282852080549092168417909155905184937fddf252ad1be2c89b69c2b068fc378daa952ba7f163c4a11628f55a4df523b3ef91a4505050565b6006546001600160a01b031633146106205760405162461bcd60e51b815260206004820181905260248201527f4f776e61626c653a2063616c6c6572206973206e6f7420746865206f776e65726044820152606401610529565b610e99611249565b6006805460ff60a01b191690557f5db9ee0a495bf2e6ff9c91a7834c1ba4fdd244a5e8aa4e537bd38aeae4b073aa335b6040516001600160a01b03909116815260200160405180910390a1565b6000610ef18261085e565b9050610f01816000846001611244565b610f0a8261085e565b600083815260046020908152604080832080546001600160a01b03199081169091556001600160a01b0385168085526003845282852080546000190190558785526002909352818420805490911690555192935084927fddf252ad1be2c89b69c2b068fc378daa952ba7f163c4a11628f55a4df523b3ef908390a45050565b805480610fd85760405162461bcd60e51b815260206004820152601b60248201527f436f756e7465723a2064656372656d656e74206f766572666c6f7700000000006044820152606401610529565b600019019055565b600654600160a01b900460ff16156106205760405162461bcd60e51b815260206004820152601060248201526f14185d5cd8589b194e881c185d5cd95960821b6044820152606401610529565b610a73828260405180602001604052806000815250611299565b600680546001600160a01b038381166001600160a01b0319831681179093556040519116919082907f8be0079c531659141344cd1fd0a4f28419497f9722a3daafe3b4186f6b6457e090600090a35050565b6110a1610fe0565b6006805460ff60a01b1916600160a01b1790557f62e78cea01bee320cd4e420270b5ea74000d11b0c9f74754ebdbfc544b05a258610ec93390565b816001600160a01b0316836001600160a01b03160361113d5760405162461bcd60e51b815260206004820152601960248201527f4552433732313a20617070726f766520746f2063616c6c6572000000000000006044820152606401610529565b6001600160a01b03838116600081815260056020908152604080832094871680845294825291829020805460ff191686151590811790915591519182527f17307eab39ab6107e8899845ad3d59bd9653f200f220920489ca2b5937696c31910160405180910390a3505050565b6111b5848484610cc6565b6111c1848484846112cc565b610aa95760405162461bcd60e51b815260040161052990611cdf565b60606111e882610b9a565b60006111f26113cd565b90506000815111611212576040518060200160405280600081525061123d565b8061121c846113dc565b60405160200161122d929190611d31565b6040516020818303038152906040525b9392505050565b610aa9565b600654600160a01b900460ff166106205760405162461bcd60e51b815260206004820152601460248201527314185d5cd8589b194e881b9bdd081c185d5cd95960621b6044820152606401610529565b6112a3838361146f565b6112b060008484846112cc565b6105ca5760405162461bcd60e51b815260040161052990611cdf565b60006001600160a01b0384163b156113c257604051630a85bd0160e11b81526001600160a01b0385169063150b7a0290611310903390899088908890600401611d60565b6020604051808303816000875af192505050801561134b575060408051601f3d908101601f1916820190925261134891810190611d9d565b60015b6113a8573d808015611379576040519150601f19603f3d011682016040523d82523d6000602084013e61137e565b606091505b5080516000036113a05760405162461bcd60e51b815260040161052990611cdf565b805181602001fd5b6001600160e01b031916630a85bd0160e11b149050610cbe565b506001949350505050565b60606008805461040b90611a85565b606060006113e983611608565b600101905060008167ffffffffffffffff81111561140957611409611960565b6040519080825280601f01601f191660200182016040528015611433576020820181803683370190505b5090508181016020015b600019016f181899199a1a9b1b9c1cb0b131b232b360811b600a86061a8153600a850494508461143d57509392505050565b6001600160a01b0382166114c55760405162461bcd60e51b815260206004820181905260248201527f4552433732313a206d696e7420746f20746865207a65726f20616464726573736044820152606401610529565b6000818152600260205260409020546001600160a01b03161561152a5760405162461bcd60e51b815260206004820152601c60248201527f4552433732313a20746f6b656e20616c7265616479206d696e746564000000006044820152606401610529565b611538600083836001611244565b6000818152600260205260409020546001600160a01b03161561159d5760405162461bcd60e51b815260206004820152601c60248201527f4552433732313a20746f6b656e20616c7265616479206d696e746564000000006044820152606401610529565b6001600160a01b038216600081815260036020908152604080832080546001019055848352600290915280822080546001600160a01b0319168417905551839291907fddf252ad1be2c89b69c2b068fc378daa952ba7f163c4a11628f55a4df523b3ef908290a45050565b60008072184f03e93ff9f4daa797ed6e38ed64bf6a1f0160401b83106116475772184f03e93ff9f4daa797ed6e38ed64bf6a1f0160401b830492506040015b6d04ee2d6d415b85acef81000000008310611673576d04ee2d6d415b85acef8100000000830492506020015b662386f26fc10000831061169157662386f26fc10000830492506010015b6305f5e10083106116a9576305f5e100830492506008015b61271083106116bd57612710830492506004015b606483106116cf576064830492506002015b600a83106103f65760010192915050565b6001600160e01b031981168114610b9757600080fd5b60006020828403121561170857600080fd5b813561123d816116e0565b60005b8381101561172e578181015183820152602001611716565b50506000910152565b6000815180845261174f816020860160208601611713565b601f01601f19169290920160200192915050565b60208152600061123d6020830184611737565b60006020828403121561178857600080fd5b5035919050565b80356001600160a01b03811681146117a657600080fd5b919050565b600080604083850312156117be57600080fd5b6117c78361178f565b946020939093013593505050565b6000806000606084860312156117ea57600080fd5b6117f38461178f565b92506118016020850161178f565b9150604084013590509250925092565b60008060006040848603121561182657600080fd5b61182f8461178f565b9250602084013567ffffffffffffffff8082111561184c57600080fd5b818601915086601f83011261186057600080fd5b81358181111561186f57600080fd5b8760208260051b850101111561188457600080fd5b6020830194508093505050509250925092565b600080602083850312156118aa57600080fd5b823567ffffffffffffffff808211156118c257600080fd5b818501915085601f8301126118d657600080fd5b8135818111156118e557600080fd5b8660208285010111156118f757600080fd5b60209290920196919550909350505050565b60006020828403121561191b57600080fd5b61123d8261178f565b6000806040838503121561193757600080fd5b6119408361178f565b91506020830135801515811461195557600080fd5b809150509250929050565b634e487b7160e01b600052604160045260246000fd5b6000806000806080858703121561198c57600080fd5b6119958561178f565b93506119a36020860161178f565b925060408501359150606085013567ffffffffffffffff808211156119c757600080fd5b818701915087601f8301126119db57600080fd5b8135818111156119ed576119ed611960565b604051601f8201601f19908116603f01168101908382118183101715611a1557611a15611960565b816040528281528a6020848701011115611a2e57600080fd5b82602086016020830137600060208483010152809550505050505092959194509250565b60008060408385031215611a6557600080fd5b611a6e8361178f565b9150611a7c6020840161178f565b90509250929050565b600181811c90821680611a9957607f821691505b602082108103611ab957634e487b7160e01b600052602260045260246000fd5b50919050565b6020808252602d908201527f4552433732313a2063616c6c6572206973206e6f7420746f6b656e206f776e6560408201526c1c881bdc88185c1c1c9bdd9959609a1b606082015260800190565b634e487b7160e01b600052601160045260246000fd5b808201808211156103f6576103f6611b0c565b634e487b7160e01b600052603260045260246000fd5b600060018201611b5d57611b5d611b0c565b5060010190565b601f8211156105ca57600081815260208120601f850160051c81016020861015611b8b5750805b601f850160051c820191505b8181101561080357828155600101611b97565b67ffffffffffffffff831115611bc257611bc2611960565b611bd683611bd08354611a85565b83611b64565b6000601f841160018114611c0a5760008515611bf25750838201355b600019600387901b1c1916600186901b178355611c64565b600083815260209020601f19861690835b82811015611c3b5786850135825560209485019460019092019101611c1b565b5086821015611c585760001960f88860031b161c19848701351681555b505060018560011b0183555b5050505050565b60208152816020820152818360408301376000818301604090810191909152601f909201601f19160101919050565b60208082526025908201527f4552433732313a207472616e736665722066726f6d20696e636f72726563742060408201526437bbb732b960d91b606082015260800190565b60208082526032908201527f4552433732313a207472616e7366657220746f206e6f6e20455243373231526560408201527131b2b4bb32b91034b6b83632b6b2b73a32b960711b606082015260800190565b60008351611d43818460208801611713565b835190830190611d57818360208801611713565b01949350505050565b6001600160a01b0385811682528416602082015260408101839052608060608201819052600090611d9390830184611737565b9695505050505050565b600060208284031215611daf57600080fd5b815161123d816116e056fea2646970667358221220f0155476ac178bc8be665a5ac11015eaff74fa63eead9dc66eb3a90a0b65b8f264736f6c63430008130033",
  "linkReferences": {},
  "deployedLinkReferences": {}
}